:08018A00000C2C40402C0C007D
:09018000007F047E92DEFEDFFC2C
:010189002253
:100135007E01E4FDEEA805088002C333D8FC5F60AC
:1001450003D38001C392B4D2B6C2B60DBD08E5D2C1
:03015500B5C2B57B
:010158002284
:10015900AE05AC07AF06120135EC14FF7401A80710
:0B016900088002C333D8FCF4F58022AC
:1000F90078087C007D007BFF7A01798A7E007F0881
:0A0109001200D3C2B6C2B5E4F580BF
:10011300751001E51004FF74082510F8E6FD1201BF
:10012300591201807580FF0510E510D3940840E350
:0201330080DE6C
:0300000002017486
:0C017400787FE4F6D8FD7581100200F9D8
:10000300E709F608DFFA8046E709F208DFFA803EDF
:1000130088828C83E709F0A3DFFA8032E309F608CC
:10002300DFFA8078E309F208DFFA807088828C8334
:10003300E309F0A3DFFA806489828A83E0A3F608E8
:10004300DFFA805889828A83E0A3F208DFFA804CC2
:1000530080D280FA80C680D4806980F28033801099
:1000630080A680EA809A80A880DA80E280CA803302
:1000730089828A83ECFAE493A3C8C582C8CCC5837A
:10008300CCF0A3C8C582C8CCC583CCDFE9DEE7804A
:100093000D89828A83E493A3F608DFF9ECFAA9F0C9
:1000A300EDFB2289828A83ECFAE0A3C8C582C8CC1F
:1000B300C583CCF0A3C8C582C8CCC583CCDFEADE38
:1000C300E880DB89828A83E493A3F208DFF980CC9A
:1000D30088F0EF60010E4E60C388F0ED2402B40493
:1000E3000050B9F582EB2402B4040050AF2323453A
:0600F3008223900053730C
:00000001FF
