:1000030008040201010204081020408080402010EF
:1000130008040201010204081020408080402010DF
:1000230008040201010204081020408080402010CF
:1000330008040201010204081020408080402010BF
:1000430008040201010204081020408080402010AF
:1000530008040201010204080000005F0000003EE2
:100063004141417F00404040407F00462919097FBC
:10007300003E4141413E007F2018207F00000000E8
:100083000000003E4141413E00404040407F00406F
:100093004040407F00414949497F007F0808087F6D
:09017600007F047E92DEFEDFFC36
:01017F00225D
:0300A300120180C7
:1000A600E4F508F509E4F50AE4F50BE4F50CAF0B05
:1000B600FEEF2401FDEE33FCC3E5099DE5089C40F7
:1000C60031EF24A0FFEE33FED3E5099FE5089E50ED
:1000D60021C374A09509FFE49508FE7C00EF250B6B
:1000E600FFEC3EFE74032FF58274003EF583E49325
:1000F600F50C7580FFE50B04FFAD0C12014F1201E4
:10010600767580FF050BE50BC39408409E050AE54E
:100116000AC3940240920509E50970020508C394D2
:0D012600A9E508940050030200AB0200A6FA
:0300000002016A90
:0C016A00787FE4F6D8FD75810C0200A33C
:08018000C2B6C2B57580FF2272
:10013300E4FEEFA806088002C313D8FC1392B4D2DE
:0B014300B6C2B60EBE08EBD2B5C2B5C6
:01014E00228E
:10014F00AE05AD07AF06120133ED14FF7401A8071A
:0B015F00088002C333D8FCF4F58022B6
:00000001FF
