:0300000002025B9E
:0C025B00787FE4F6D8FD7581270200973B
:1002230075985053890F43892053877F758DFD75CA
:050233008BFDD28E22BC
:08027B008F993099FDC2992210
:070283003098FDC298AF990D
:01028A002251
:100097007526017527011202231202381202838F77
:1000A70025AB25AD27AF261202710527E527D39487
:1000B700104010752701E526B40105752602800357
:0A00C700752601AF2512027B80D2DE
:06024C00C2A58F80D2A7BD
:080252007F027EEFDEFEDFFCFF
:01025A002281
:0A026700C2A612024CC2A702025206
:1001D200CFCDCFCECCCE1200427C007D0A1200429F
:0401E200ED2430FFD9
:0A01E600D2A612024CC2A702025278
:10020D00AE07BE0104ED148006BE0209ED243F4485
:06021D0080FF12026722BF
:100238007F381202677F0C1202677F061202677FFF
:040248000102026746
:0A027100AC0312020DAF040201E617
:0601AF008B228A23892443
:1001B50012020DE4FDAB22AA23A9248D82758300CA
:0C01C500120003FF60061201E60D80E945
:0101D100220B
:0C017C007F0AEA24FFFDE434FFFC7E0053
:080188008E1E8F1F8C208D21BB
:100190007F017E00E4FBEBC39521E5206480F874C9
:0E01A0008098500AAC1EAD1F1200300B80E894
:0101AE00222E
:0401F0008A118B12D3
:1001F40012020DAA13EAD39400400D12017CAC1133
:08020400AD121201D21A80EDC7
:01020C0022CF
:1000D10012020DC3EA64809480400B7F2B1201E66B
:1000E1008A0D8B0E800E7F2D1201E6C3E49BF50E67
:1000F100E49AF50DAA0CEAD39400400D12017CACF0
:090101000DAD0E1201D21A80EDC1
:01010A0022D2
:04010B008A168B17AE
:10010F0012020DAA18EAD3940040297F1012017E23
:10011F00AC16AD17CFCDCFCECCCE120042EF540FD1
:10012F00FEC3940AEE5004243080022437FF1201DC
:04013F00E61A80D16B
:010143002299
:040144008A1B8B1C6B
:1001480012020DAA1DEAD394004028EA24FFFDE418
:1001580034FFFC7F027E00120188AC1BAD1CCFCDA2
:10016800CFCECCCE120042EF54012430FF1201E66C
:030178001A80D218
:01017B002261
:10000300BB010CE58229F582E5833AF583E02250B2
:1000130006E92582F8E622BBFE06E92582F8E222FC
:0D002300E58229F582E5833AF583E4932216
:10003000EF8DF0A4A8F0CF8CF0A428CE8DF0A42EE4
:02004000FE229E
:10004200BC000BBE0029EF8DF084FFADF022E4CCA2
:10005200F875F008EF2FFFEE33FEEC33FCEE9DEC6B
:10006200984005FCEE9DFE0FD5F0E9E4CEFD22EDB1
:10007200F8F5F0EE8420D21CFEADF075F008EF2FFB
:10008200FFED33FD4007985006D5F0F222C398FDEC
:050092000FD5F0EA2289
:00000001FF
