:0300000002009A61
:0C009A00787FE4F6D8FD7581460200E195
:03038E0001080063
:0A034F007F2078097420F608DFFC17
:010359002281
:08036E007F247ED9DEFEDFFCD6
:010376002264
:1003170075985053890F43892053877F758DFD75D5
:050327008BFDD28E22C7
:080377008F993099FDC2992213
:07037F003098FDC298AF9910
:010386002254
:07038700D2AFD2A8D28822F8
:03000300020126D1
:10012600C0E0C0F0C083C082C0D075D000C000C09F
:0D01360001C002C003C004C005C006C00720
:1001430012036E20B237754600E546D3940FE54699
:10015300400E24F1FD74092546F8E6FB7F02800B6F
:1001630004FD74092546F8E6FB7F01120364054686
:10017300E546C3942040D212034F75080030B2FD08
:0301830012036EF6
:10018600D007D006D005D004D003D002D001D000CD
:0B019600D0D0D082D083D0F0D0E03277
:10027F0012031712032C12038712034F12037F74FA
:10028F00092508F8A6070508E508D3941F40EDE4F3
:04029F00F50880E8F6
:06034000C2A58F80D2A7C8
:080346007F027EEFDEFEDFFC0A
:01034E00228C
:0A035A00C2A6120340C2A702034628
:1002C600CFCDCFCECCCE1200457C007D0A120045A4
:0402D600ED2430FFE4
:0A02DA00D2A6120340C2A702034699
:10030100AE07BE0104ED148006BE0209ED243F4490
:0603110080FF12035A22D6
:10032C007F3812035A7F0C12035A7F0612035A7F2E
:04033C000102035A5D
:0A036400AC03120301AF040202DA39
:0602A3008B438A448945EB
:1002A900120301E4FDAB43AA44A9458D827583007D
:0C02B900120006FF60061202DA0D80E958
:0102C5002216
:0C024C007F0AEA24FFFDE434FFFC7E0082
:080258008E3F8F408C418D4266
:100260007F017E00E4FBEBC39542E5416480F874B6
:0E0270008098500AAC3FAD401200330B80E87E
:01027E00225D
:0402E4008A328B339C
:1002E800120301AA34EAD39400400D12024CAC3236
:0802F800AD331202C61A80EDBD
:0103000022DA
:1001A100120301C3EA64809480400B7F2B1202DAB0
:1001B1008A2E8B2F800E7F2D1202DAC3E49BF52F3E
:1001C100E49AF52EAA2DEAD39400400D12024CAC0C
:0901D1002EAD2F1202C61A80EDBA
:0101DA002202
:0401DB008A378B389C
:1001DF00120301AA39EAD3940040297F1012024E6C
:1001EF00AC37AD38CFCDCFCECCCE120045EF540FBC
:1001FF00FEC3940AEE5004243080022437FF12020B
:04020F00DA1A80D1A6
:0102130022C8
:040214008A3C8B3D58
:10021800120301AA3EEAD394004028EA24FFFDE431
:1002280034FFFC7F027E00120258AC3CAD3DCFCDBE
:10023800CFCECCCE120045EF54012430FF1202DAA3
:030248001A80D247
:01024B002290
:1000A60002027FE493A3F8E493A34003F68001F2EF
:1000B60008DFF48029E493A3F85407240CC8C3335B
:1000C600C4540F4420C8834004F456800146F6DF2A
:1000D600E4800B010204081020408090038EE47E29
:1000E600019360BCA3FF543F30E509541FFEE4931F
:1000F600A360010ECF54C025E060A840B8E493A3E6
:10010600FAE493A3F8E493A3C8C582C8CAC583CA10
:10011600F0A3C8C582C8CAC583CADFE9DEE780BEC8
:01039100006B
:10000600BB010CE58229F582E5833AF583E02250AF
:1000160006E92582F8E622BBFE06E92582F8E222F9
:0D002600E58229F582E5833AF583E4932213
:10003300EF8DF0A4A8F0CF8CF0A428CE8DF0A42EE1
:02004300FE229B
:10004500BC000BBE0029EF8DF084FFADF022E4CC9F
:10005500F875F008EF2FFFEE33FEEC33FCEE9DEC68
:10006500984005FCEE9DFE0FD5F0E9E4CEFD22EDAE
:10007500F8F5F0EE8420D21CFEADF075F008EF2FF8
:10008500FFED33FD4007985006D5F0F222C398FDE9
:050095000FD5F0EA2286
:00000001FF
