:0300000002051BDB
:0C051B00787FE4F6D8FD7581350205629A
:1006F0004D6F6E202000547565732000576564208F
:10070000200054687572730046726920200053619E
:100710007420200053756E202000323000202020ED
:100720002000202000323020202D20202D202000ED
:1007300020203A20203A00000302050003050104AE
:03074000060204AA
:1009C800011300010901011601011B0001180001B2
:0209D800080015
:0809FE007F247ED9DEFEDFFC40
:010A060022CD
:030A1C00D2AF2234
:05000600D2AAD28A22FB
:05000E00D2A8D28822F7
:030A1F00C2A82248
:1009B500D2AFD2A95389F0438901D28C758C4CE40E
:0309C500F58A228E
:10068800EF14B40700506090069D75F003A4C5836D
:1006980025F0C583730206B20206BA0206C2020634
:1006A800CA0206D20206DA0206E27BFF7A0679F06F
:1006B800802E7BFF7A0679F680267BFF7A0679FC06
:1006C800801E7BFF7A07790280167BFF7A077908FC
:1006D800800E7BFF7A07790E80067BFF7A077914F4
:0806E8007D0C7F0212091522AE
:100358007F8D12082D8F0E7F8912082D8F1A7F87A7
:1003680012082D8F0B7F8B12082D8F147F85120892
:100378002D8F157F8312082D8F177F8112082D8FDF
:1003880012E50EC4540F75F00AA4FFE50E540F2FA2
:10039800F50CE51AC4540F75F00AA4FFE51A540FBA
:1003A8002FF519E50BC4540F75F00AA4FFE50B549B
:1003B8000F2FF50AE5145407F50FE5155430C4540A
:1003C8000F75F00AA4FFE515540F2FF510E517C4B3
:1003D800540F75F00AA4FFE517540F2FF511E51215
:1003E8005470C4540F75F00AA4FFE512540F2FF58A
:0203F8000D22D4
:1005A700E50C24D0FFE43407AB07FAE519C394033D
:1005B7005005EB1B70011AEBAE027802CEC313CEC7
:1005C70013D8F92BF582EE3AF5837C007D64AF03EF
:1005D700AE02120439C3E5829FF582E5839EF58357
:1005E700AE02AF037C017D90120439EF2582FFEE46
:1005F7003583FEE519900736937C002FFFEC3EFE0E
:10060700EF250AFFEC3EFE7D07120439AF05EF70B8
:04061700037F072234
:01061B0022BC
:10029B00E50C75F00A84C454F0FFE50C75F00A8484
:1002AB00E5F04FF50EE51975F00A84C454F0FFE53F
:1002BB001975F00A84E5F04FF51AE50A75F00A8412
:1002CB00C454F0FFE50A75F00A84E5F04FF50BE531
:1002DB001075F00A84C454F0FFE51075F00A84E53C
:1002EB00F04FF515E51175F00A84C454F0FFE511D4
:1002FB0075F00A84E5F04FF517E50D75F00A84C427
:10030B0054F0FFE50D75F00A84E5F04FF512120578
:10031B00A78F0F850F14120A0EAD0E7F8C1208ECEF
:10032B00AD1A7F881208ECAD0B7F861208ECAD1569
:10033B007F841208ECAD177F821208ECAD127F8020
:0D034B001208ECAD147F8A1208EC020A15AE
:10074300120A0EE4FD7F8C1208EC7D017F881208EB
:10075300EC7D017F861208ECE4FD7F841208ECE453
:10076300FD7F821208ECE4FD7F801208EC1205A7DE
:0F0773008F0F850F14AD147F8A1208EC020A1540
:030013000208C31D
:1008C300C0E0C0D075D000C007758C4C758A00E5B8
:1008D3001370047F0180027F008F13E5137003758B
:0908E3001801D007D0D0D0E0329A
:03000B0002089553
:10089500C0E0C0D075D000C007758C4C758A0005C6
:1008A5001BE51BC3940A400FE51670047F01800207
:0E08B5007F008F16751B00D007D0D0D0E03228
:10061C007BFF7A07791A7D017F01120915E50CFB26
:10062C007A007520027D037F01120956E519FB7AC9
:10063C00007520027D067F01120956E50AFB7A003F
:10064C007520027D097F01120956AF0F120688E54D
:10065C0010FB7A007520027D017F02120956E5110C
:10066C00FB7A007520027D047F02120956E50DFB12
:0C067C007A007520027D077F02020956FB
:030003000209737C
:10097300C0E0C0D00509E509D39406400375090119
:08098300750801D0D0D0E0326C
:1000FC00E50924FE60321460421470030201A91455
:10010C0070030201B61470030201C32405600302DC
:10011C0001D0050C751901750A01E50CD3946350D7
:10012C00030201D3E4F50C220519750A01E519D374
:10013C00940C50030201D375190122E519B4021C69
:10014C00E50C5403700B050AE50AD3941D40788026
:10015C0048050AE50AD3941C406D803DE5196401FD
:10016C006023E5196403601DE51964056017E51942
:10017C0064076011E5196408600BE519640A6005F1
:10018C00E519B40C0B050AE50AD3941F4039800914
:10019C00050AE50AD3941E402E750A01220510E5C6
:1001AC0010C394184021E4F510220511E511C394F5
:1001BC003C4014E4F51122050DE50DC3943C4007B9
:0801CC00E4F50D227509012282
:1001D400E50924FE603214604414700302027014B2
:1001E400700302027D14700302028A240560030274
:1001F4000297150C751901750A01E50CD394635027
:100204000302029A750C63221519750A01E5196037
:1002140008D3940C500302029A75190C22150AE5AE
:100224000A6005D3941F406EE519B4020EE50C5420
:10023400037004750A1D22750A1C22E51964016005
:1002440023E5196403601DE51964056017E5196465
:10025400076011E5196408600BE519640A6005E597
:1002640019B40C04750A1F22750A1E221510E51014
:10027400D394174021751017221511E511D3943B1F
:10028400401475113B22150DE50DD3943B400775C1
:070294000D3B227509012258
:10001600E5086006E4F50812061CE50924FE603EC4
:100026001460551460701470030200BA1470030251
:1000360000D8240560030200F8E5167BFF60087A05
:1000460007791D7D01803D7A07791A7D017F0112AE
:100056000915E50CFB7A007520027D038034E51650
:10006600600A7BFF7A0779227D068018E519FB7AFC
:10007600007520027D06801AE516600C7BFF7A0764
:1000860079227D097F018058E50AFB7A00752002F6
:100096007D097F018059E516600C7BFF7A0779227E
:1000A6007D017F02803AE510FB7A007520027D0112
:1000B6007F02803BE516600C7BFF7A0779227D0480
:1000C6007F02801CE511FB7A007520027D047F0209
:1000D600801DE516600D7BFF7A0779227D077F027A
:1000E600020915E50DFB7A007520027D077F0202E5
:0600F60009567509012204
:10048E001209A1120A07120A1C12000E12000612FD
:10049E0009B57BFF7A0779257D017F011209157B4E
:1004AE00FF7A0779307D017F02120915E513700876
:1004BE0012035812061C802C30B10C30B009E51313
:1004CE00600512001680F130B10320B0031209FE50
:1004DE0020B1081200FC20B10B80FB20B0061201E7
:1004EE00D430B0FDE51860C4E4F51812029B120971
:1004FE00A17BFF7A0779257D017F011209157BFF0C
:0D050E007A0779307D017F02120915809F68
:0609DB00C2A58F80D2A727
:0809E1007F027EEFDEFEDFFC69
:0109E90022EB
:0A09EA00C2A61209DBC2A70209E150
:10093800CFCDCFCECCCE1204397C007D0A1204393B
:04094800ED2430FF6B
:0A094C00D2A61209DBC2A70209E1DE
:10098B00AE07BE0104ED148006BE0209ED243F4400
:06099B0080FF1209EA22B0
:1009A1007F381209EA7F0C1209EA7F061209EA7FF1
:0409B100010209EA4C
:0A09F400AC0312098BAF0402094C9A
:060915008B1C8A1D891EE7
:10091B0012098BE4FDAB1CAA1DA91E8D82758300E9
:0C092B001203FAFF600612094C0D80E96F
:01093700229D
:0C0862007F0AEA24FFFDE434FFFC7E0066
:08086E008E218F228C238D24C2
:100876007F017E00E4FBEBC39524E5236480F874D6
:0E0886008098500AAC21AD221204270B80E8A6
:010894002241
:040956008A1E8B1F4B
:10095A0012098BAA20EAD39400400D120862AC1E39
:08096A00AD1F1209381A80EDDF
:010972002262
:1007820012098BC3EA64809480400B7F2B12094CC0
:100792008A2A8B2B800E7F2D12094CC3E49BF52BEA
:1007A200E49AF52AAA29EAD39400400D120862AC11
:0907B2002AAD2B1209381A80ED62
:0107BB00221B
:0407BC008A2E8B2FC7
:1007C00012098BAA30EAD3940040297F10120864E2
:1007D000AC2EAD2FCFCDCFCECCCE120439EF540FEF
:1007E000FEC3940AEE5004243080022437FF12091D
:0407F0004C1A80D14E
:0107F40022E2
:0407F5008A338B3484
:1007F90012098BAA35EAD394004028EA24FFFDE4C4
:1008090034FFFC7F027E0012086EAC33AD34CFCDCD
:10081900CFCECCCE120439EF54012430FF12094C4B
:030829001A80D260
:01082C0022A9
:070A0700C2B5C2B6C2B42261
:10082D00E4FED2B5FDEF1392B4EFC313FFD2B6C2FF
:10083D00B60DBD08F0E4FD30B40D7401A8050880B7
:10084D0002C333D8FC4206D2B6C2B60DBD08E812BB
:04085D000A07AF06D1
:010861002274
:1008EC00D2B5E4FEEF1392B4EFC313FFD2B6C2B687
:1008FC000EBE08F0E4FEED1392B4EDC313FDD2B6B8
:09090C00C2B60EBE08F0020A0793
:070A0E00E4FD7F8E0208ECFD
:070A15007D807F8E0208ECDA
:1005270002048EE493A3F8E493A34003F68001F258
:1005370008DFF48029E493A3F85407240CC8C333D5
:10054700C4540F4420C8834004F456800146F6DFA4
:10055700E4800B01020408102040809009C8E47E63
:10056700019360BCA3FF543F30E509541FFEE49399
:10057700A360010ECF54C025E060A840B8E493A360
:10058700FAE493A3F8E493A3C8C582C8CAC583CA8B
:10059700F0A3C8C582C8CAC583CADFE9DEE780BE43
:0109DA00001C
:1003FA00BB010CE58229F582E5833AF583E02250B8
:10040A0006E92582F8E622BBFE06E92582F8E22201
:0D041A00E58229F582E5833AF583E493221B
:10042700EF8DF0A4A8F0CF8CF0A428CE8DF0A42EE9
:02043700FE22A3
:10043900BC000BBE0029EF8DF084FFADF022E4CCA7
:10044900F875F008EF2FFFEE33FEEC33FCEE9DEC70
:10045900984005FCEE9DFE0FD5F0E9E4CEFD22EDB6
:10046900F8F5F0EE8420D21CFEADF075F008EF2F00
:10047900FFED33FD4007985006D5F0F222C398FDF1
:050489000FD5F0EA228E
:00000001FF
