:0300000002019664
:0C019600787FE4F6D8FD7581190200D1D5
:0A01AC003F065B4F666D7D077F6F15
:0901A200007F027EC7DEFEDFFCD7
:0101AB002231
:10017900C374089FFF1392A2EFC313FF1392A3EF57
:0C018900C3131392A4ED9001AC93F58019
:010195002247
:1000D100E4F50BF50AF509F508F50CF515740D2590
:1000E10015F8E4F60515E515B408F2E4F515E5157E
:1000F10004FF740D2515F8E6FD1201791201A2E441
:10010100F5800515E515C3940840E3050CE50CC31E
:04011100947D40D7C2
:10011500E4F50CE50B2401F50BE4350AF50AE435A5
:1001250009F509E43508F508850B19850A188509C7
:1001350017F516751508E515D3940040AAE47B0A52
:10014500FAF9F8AF19AE18AD17AC1612003FAF03A8
:10015500740C2515F8A607AF19AE18AD17AC16E443
:100165007B0AFAF9F812003F8F198E188D178C1635
:04017500151580C21A
:1000030075F008758200EF2FFFEE33FECD33CDCCB4
:1000130033CCC58233C5829BED9AEC99E582984037
:100023000CF582EE9BFEED9AFDEC99FC0FD5F0D614
:10003300E4CEFBE4CDFAE4CCF9A88222B800C1B93E
:100043000059BA002DEC8BF084CFCECDFCE5F0CB7C
:10005300F97818EF2FFFEE33FEED33FDEC33FCEBB5
:1000630033FB10D703994004EB99FB0FD8E5E4F970
:10007300FA227818EF2FFFEE33FEED33FDEC33FC5D
:10008300C933C910D7059BE99A4007EC9BFCE99A51
:10009300F90FD8E0E4C9FAE4CCFB2275F010EF2F96
:1000A300FFEE33FEED33FDCC33CCC833C810D70796
:1000B3009BEC9AE899400AED9BFDEC9AFCE899F8D1
:0E00C3000FD5F0DAE4CDFBE4CCFAE4C8F92264
:00000001FF
