:0300000002016298
:0C016200787FE4F6D8FD7581270201A922
:0C03FA00436C6F636B3A003A20203A001D
:0F03DB00011B00011C00011A00011900011D0186
:1003CB00758921D2A9D2AF758C4CE4F58AD28C22D7
:10034A0053877F759850538EBF538EFE53890F4340
:0F035A008920758BFD758DFDC2ABD28ED2AC2282
:03000B0002029955
:10029900C0E0C0D0758C4C758A000519E519C39466
:1002A90014401E751900051AE51A943C4010751A78
:1002B90000051CE51C943C4005751C00051B751DBB
:0602C90001D0D0D0E032AC
:03002300020302D3
:07030200C0E0C0D0309819E3
:10030900859911E511B4520F751B00751C00751AFA
:0903190000751900751D01C29860
:05032200D0D0D0E03254
:0903BA0075F00A84E5F02430FF1F
:0803C3008F993099FDC29922C7
:1000260012000E7BFF7A0379FA7D017F0112032706
:100036007BFF7A0479017D0B7F021203271203CB23
:1000460012034AE51D60FCE4F51DE51B75F00A8404
:100056002430FF1203C3E51B75F00A84E5F0243053
:10006600FF1203C37F3A1203C3E51C75F00A84240A
:1000760030FF1203C3E51C1203BA7F3A1203C3E52D
:100086001A75F00A842430FF1203C3E51A1203BA64
:100096007F0A1203C3AF1AEFFB7A00750C027D0FBD
:1000A6007F02120387AF1CEFFB7A00750C027D0CF2
:1000B6007F02120387AF1BEFFB7A00750C027D09E6
:0800C6007F02120387020049CA
:0603EB00C2A58F80D2A71D
:0803F1007F027EEFDEFEDFFC5F
:0103F90022E1
:0A040600C2A61203EBC2A70203F125
:10036900CFCDCFCECCCE12010D7C007D0A12010D6E
:04037900ED2430FF40
:0A037D00D2A61203EBC2A70203F19F
:1003A400AE07BE0104ED148006BE0209ED243F44ED
:0603B40080FF1204062286
:10000E007F381204067F0C1204067F061204067F48
:04001E0001020406D1
:0A041000AC031203A4AF0402037D45
:060327008B088A09890A17
:10032D001203A4E4FDAB08AA09A90A8D8275830006
:0C033D001200CEFF600612037D0D80E967
:010349002291
:0C02CF007F0AEA24FFFDE434FFFC7E00FF
:0802DB008E0D8F0E8C0F8D10AB
:1002E3007F017E00E4FBEBC39510E50F6480F87497
:0E02F3008098500AAC0DAD0E1200FB0B80E897
:0103010022D9
:040387008A0A8B0B48
:10038B001203A4AA0CEAD39400400D1202CFAC0ABC
:08039B00AD0B1203691A80ED9D
:0103A3002237
:1001EE001203A4C3EA64809480400B7F2B12037D1C
:1001FE008A178B18800E7F2D12037DC3E49BF51892
:10020E00E49AF517AA16EAD39400400D1202CFAC69
:09021E0017AD181203691A80EDF6
:0102270022B4
:040228008A208B217C
:10022C001203A4AA22EAD3940040297F101202D10F
:10023C00AC20AD21CFCDCFCECCCE12010DEF540FD3
:10024C00FEC3940AEE5004243080022437FF1203BC
:04025C007D1A80D1B6
:01026000227B
:040261008A258B2639
:100265001203A4AA27EAD394004028EA24FFFDE458
:1002750034FFFC7F027E001202DBAC25AD26CFCD1C
:10028500CFCECCCE12010DEF54012430FF12037DE9
:030295001A80D2FA
:010298002243
:10016E00020026E493A3F8E493A34003F68001F281
:10017E0008DFF48029E493A3F85407240CC8C33392
:10018E00C4540F4420C8834004F456800146F6DF61
:10019E00E4800B01020408102040809003DBE47E13
:1001AE00019360BCA3FF543F30E509541FFEE49356
:1001BE00A360010ECF54C025E060A840B8E493A31D
:1001CE00FAE493A3F8E493A3C8C582C8CAC583CA48
:1001DE00F0A3C8C582C8CAC583CADFE9DEE780BE00
:0103EA000012
:1000CE00BB010CE58229F582E5833AF583E02250E7
:1000DE0006E92582F8E622BBFE06E92582F8E22231
:0D00EE00E58229F582E5833AF583E493224B
:1000FB00EF8DF0A4A8F0CF8CF0A428CE8DF0A42E19
:02010B00FE22D2
:10010D00BC000BBE0029EF8DF084FFADF022E4CCD6
:10011D00F875F008EF2FFFEE33FEEC33FCEE9DEC9F
:10012D00984005FCEE9DFE0FD5F0E9E4CEFD22EDE5
:10013D00F8F5F0EE8420D21CFEADF075F008EF2F2F
:10014D00FFED33FD4007985006D5F0F222C398FD20
:05015D000FD5F0EA22BD
:00000001FF
