:0300000002057383
:0C057300787FE4F6D8FD758129020003B2
:080593007F247ED9DEFEDFFCAF
:01059B00223D
:050542001202878F0882
:0D054700007F037E1A7DDFDDFEDEFCDFFAA3
:010554002284
:0F0555007590F0E59064F06003AF90227FF02284
:1002870075900FE590640F6003120593E590640F76
:100297007003020331AF90EF24F9606E24FC604ACB
:1002A70024FE6026146003020331120555EF245023
:1002B700600F24E0600E24F0600D2470706C7F0ADC
:1002C700227F0B227F0C227F0D22120555EF24502F
:1002D700600F24E0600E24F0600D2470704C7F03E3
:1002E700227F06227F09227F0E22120555EF245016
:1002F700600F24E0600E24F0600D2470702C7F02E4
:10030700227F05227F08227F0022120555EF245005
:10031700600F24E0600E24F0600D2470700C7F01E4
:10032700227F04227F07227F0F2275900FE590B46A
:100337000FFBE590640F6003020287120593020228
:01034700872E
:030003000201F9FE
:10000600E4F509F50AF50BF50C120542E508D3945B
:10001600095014AE09AF0A7C007D0A120375EF255C
:1000260008F50AEC3EF509E508B40F0FAE09AF0A6C
:100036007C007D0A1203878E098F0AE508C3940A9D
:100046004005E508B40F10751105AB0AAA097D0134
:100056007F011204FB80B2E50824F570030200F666
:100066001470030201771470030201FF24037090D9
:100076007B2B7D067F01120589120542E508D39484
:10008600095014AE0BAF0C7C007D0A120375EF25E8
:1000960008F50CEC3EF50BE508B40F0FAE0BAF0CF4
:1000A6007C007D0A1203878E0B8F0CE508640E60B8
:1000B6001CE508D394094005E508B40FBC75110585
:1000C600AB0CAA0B7D077F011204FB80AC7B3D7D48
:1000D6000B7F02120589E50A250CFBE509350BFAAB
:1000E6007511057D0C7F021204FB20B1FD0201F99A
:1000F6007B2D7D067F01120589120542E508D39402
:10010600095014AE0BAF0C7C007D0A120375EF2567
:1001160008F50CEC3EF50BE508B40F0FAE0BAF0C73
:100126007C007D0A1203878E0B8F0CE508640E6037
:100136001CE508D394094005E508B40FBC75110504
:10014600AB0CAA0B7D077F011204FB80AC7B3D7DC7
:100156000B7F02120589C3E50A950CFBE509950B91
:10016600FA7511057D0C7F021204FB20B1FD020118
:10017600F97B787D067F01120589120542E508D3D1
:1001860094095014AE0BAF0C7C007D0A120375EF78
:100196002508F50CEC3EF50BE508B40F0FAE0BAFDA
:1001A6000C7C007D0A1203878E0B8F0CE508640E0B
:1001B600601CE508D394094005E508B40FBC751129
:1001C60005AB0CAA0B7D077F011204FB80AC7B3DBF
:1001D6007D0B7F02120589AC0BAD0CAE09AF0A127E
:1001E6000375AA06AB077511057D0C7F021204FB89
:1001F60020B1FD12052E0200067B2F7D067F01121F
:100206000589120542E508D394095014AE0BAF0CCC
:100216007C007D0A120375EF2508F50CEC3EF50B04
:10022600E508B40F0FAE0BAF0C7C007D0A120387F6
:100236008E0B8F0CE508640E601CE508D39409400C
:1002460005E508B40FBC751105AB0CAA0B7D077F3D
:10025600011204FB80AC7B3D7D0B7F02120589AC4D
:100266000BAD0CAE09AF0A120387AA06AB077511D0
:10027600057D0C7F021204FB20B1FD12052E020043
:010286000671
:06056400C2A58F80D2A7A2
:08056A007F027EEFDEFEDFFCE4
:010572002266
:0A057F00C2A6120564C2A702056AB5
:1004DD00CFCDCFCECCCE1203877C007D0A12038701
:0404ED00ED2430FFCB
:0A04F100D2A6120564C2A702056A34
:10051800AE07BE0104ED148006BE0209ED243F4477
:0605280080FF12057F2296
:10052E007F3812057F7F0C12057F7F0612057F7FB5
:04053E000102057F32
:0A058900AC03120518AF040204F1E0
:0604BA008B278A28892926
:1004C000120518E4FDAB27AA28A9298D827583009F
:0C04D000120348FF60061204F10D80E9E1
:0104DC0022FD
:0C0487007F0AEA24FFFDE434FFFC7E0045
:080493008E128F138C148D15DD
:10049B007F017E00E4FBEBC39515E5146480F874D3
:0E04AB008098500AAC12AD131203750B80E856
:0104B9002220
:0404FB008A0F8B10C9
:1004FF00120518AA11EAD39400400D120487AC0F0D
:08050F00AD101204DD1A80EDAD
:0105170022C1
:1003DC00120518C3EA64809480400B7F2B1204F141
:1003EC008A1B8B1C800E7F2D1204F1C3E49BF51C21
:1003FC00E49AF51BAA1AEAD39400400D120487ACB8
:09040C001BAD1C1204DD1A80ED89
:0104150022C4
:040416008A1F8B208E
:10041A00120518AA21EAD3940040297F10120489F0
:10042A00AC1FAD20CFCDCFCECCCE120387EF540F69
:10043A00FEC3940AEE5004243080022437FF1204CB
:04044A00F11A80D152
:01044E00228B
:04044F008A248B254B
:10045300120518AA26EAD394004028EA24FFFDE4F3
:1004630034FFFC7F027E00120493AC24AD25CFCD74
:10047300CFCECCCE120387EF54012430FF1204F108
:030483001A80D20A
:010486002253
:10034800BB010CE58229F582E5833AF583E022506A
:1003580006E92582F8E622BBFE06E92582F8E222B4
:0D036800E58229F582E5833AF583E49322CE
:10037500EF8DF0A4A8F0CF8CF0A428CE8DF0A42E9C
:02038500FE2256
:10038700BC000BBE0029EF8DF084FFADF022E4CC5A
:10039700F875F008EF2FFFEE33FEEC33FCEE9DEC23
:1003A700984005FCEE9DFE0FD5F0E9E4CEFD22ED69
:1003B700F8F5F0EE8420D21CFEADF075F008EF2FB3
:1003C700FFED33FD4007985006D5F0F222C398FDA4
:0503D7000FD5F0EA2241
:00000001FF
