:03000000020238C1
:0C023800787FE4F6D8FD75812102019862
:0D022B0048454C4C4F20574F524C44210089
:100198001202087BFF7A02792B7D017F011201751B
:0F01A800750C05E4FBFA7D017F021201D580FE84
:06021C00C2A58F80D2A7ED
:080222007F027EEFDEFEDFFC2F
:01022A0022B1
:0A024400C2A612021CC2A702022289
:1001B700CFCDCFCECCCE1200427C007D0A120042BA
:0401C700ED2430FFF4
:0A01CB00D2A612021CC2A7020222F3
:1001F200AE07BE0104ED148006BE0209ED243F44A1
:0602020080FF12024422FD
:100208007F381202447F0C1202447F061202447F98
:040218000102024499
:0A024E00AC031201F2AF040201CB71
:060175008B088A09890ACB
:10017B001201F2E4FDAB08AA09A90A8D827583006E
:0C018B00120003FF60061201CB0D80E99A
:010197002245
:0C0142007F0AEA24FFFDE434FFFC7E008D
:08014E008E0D8F0E8C0F8D1039
:100156007F017E00E4FBEBC39510E50F6480F87425
:0E0166008098500AAC0DAD0E1200300B80E8F0
:010174002268
:0401D5008A0A8B0BFC
:1001D9001201F2AA0CEAD39400400D120142AC0AB2
:0801E900AD0B1201B71A80ED05
:0101F10022EB
:100097001201F2C3EA64809480400B7F2B1201CBDC
:1000A7008A168B17800E7F2D1201CBC3E49BF517A1
:1000B700E49AF516AA15EAD39400400D120142AC52
:0900C70016AD171201B71A80ED05
:0100D000220D
:0400D1008A1A8B1BE1
:1000D5001201F2AA1CEAD3940040297F10120144B0
:1000E500AC1AAD1BCFCDCFCECCCE120042EF540F04
:1000F500FEC3940AEE5004243080022437FF120117
:04010500CB1A80D1C0
:0101090022D3
:04010A008A1F8B209D
:10010E001201F2AA21EAD394004028EA24FFFDE46A
:10011E0034FFFC7F027E0012014EAC1FAD20CFCD0E
:10012E00CFCECCCE120042EF54012430FF1201CBC1
:03013E001A80D252
:01014100229B
:10000300BB010CE58229F582E5833AF583E02250B2
:1000130006E92582F8E622BBFE06E92582F8E222FC
:0D002300E58229F582E5833AF583E4932216
:10003000EF8DF0A4A8F0CF8CF0A428CE8DF0A42EE4
:02004000FE229E
:10004200BC000BBE0029EF8DF084FFADF022E4CCA2
:10005200F875F008EF2FFFEE33FEEC33FCEE9DEC6B
:10006200984005FCEE9DFE0FD5F0E9E4CEFD22EDB1
:10007200F8F5F0EE8420D21CFEADF075F008EF2FFB
:10008200FFED33FD4007985006D5F0F222C398FDEC
:050092000FD5F0EA2289
:00000001FF
