:0E036500436C6F636B3A0020203A20203A0070
:09037300011A00011C00011B002D
:10012E00120331120345758CEEE4F58A7BFF7A03D8
:10013E0079657D017F011202A87BFF7A03796C7DC0
:10014E00017F021202A8E51BFB7A00750C027D01ED
:10015E007F021202E9E51CFB7A00750C027D047F1A
:10016E00021202E9E51AFB7A00750C027D077F0286
:05017E001202E980D12E
:03000B000201836C
:04018300C0E0C0D048
:10018700758CEE758A000519E51970020518C39478
:10019700C8E51894004027751800751900051AE579
:1001A7001A943C4019751A00051CE51C943C400E36
:0E01B700751C00051BE51B94184003751B000A
:0501C500D0D0D0E032B3
:10031C00EF1FAC0670011E4C600A7D027CEFDCFE08
:04032C00DDFC80EC88
:0103300022AA
:06035600C2A58F80D2A7B2
:08035C007F027EEFDEFEDFFCF4
:010364002276
:0A037D00C2A6120356C2A702035CD9
:1002CB00CFCDCFCECCCE12004D7C007D0A12004D8F
:0402DB00ED2430FFDF
:0A02DF00D2A6120356C2A702035C68
:10030600AE07BE0104ED148006BE0209ED243F448B
:0603160080FF12037D22AE
:100331007F3812037D7F0C12037D7F0612037D7FC0
:040341000102037D35
:0A038700AC03120306AF040202DF0C
:0602A8008B088A09890A97
:1002AE00120306E4FDAB08AA09A90A8D8275830024
:0C02BE0012000EFF60061202DF0D80E946
:0102CA002211
:0C0275007F0AEA24FFFDE434FFFC7E0059
:080281008E0D8F0E8C0F8D1005
:100289007F017E00E4FBEBC39510E50F6480F874F1
:0E0299008098500AAC0DAD0E12003B0B80E8B1
:0102A7002234
:0402E9008A0A8B0BE7
:1002ED00120306AA0CEAD39400400D120275AC0A53
:0802FD00AD0B1202CB1A80EDDB
:0103050022D5
:1001CA00120306C3EA64809480400B7F2B1202DF7D
:1001DA008A168B17800E7F2D1202DFC3E49BF51758
:1001EA00E49AF516AA15EAD39400400D120275ACEA
:0901FA0016AD171202CB1A80EDBC
:0102030022D8
:040204008A1F8B20A2
:10020800120306AA21EAD3940040297F101202772C
:10021800AC1FAD20CFCDCFCECCCE12004DEF540FBA
:10022800FEC3940AEE5004243080022437FF1202E1
:04023800DF1A80D178
:01023C00229F
:04023D008A248B255F
:10024100120306AA26EAD394004028EA24FFFDE41B
:1002510034FFFC7F027E00120281AC24AD25CFCD9C
:10026100CFCECCCE12004DEF54012430FF1202DF6D
:030271001A80D21E
:010274002267
:100345005389F0438901C28DD28CD2A9D2AFC2B9EB
:010355002285
:030000000200A259
:0C00A200787FE4F6D8FD7581260200E9A5
:10000E00BB010CE58229F582E5833AF583E02250A7
:10001E0006E92582F8E622BBFE06E92582F8E222F1
:0D002E00E58229F582E5833AF583E493220B
:10003B00EF8DF0A4A8F0CF8CF0A428CE8DF0A42ED9
:02004B00FE2293
:10004D00BC000BBE0029EF8DF084FFADF022E4CC97
:10005D00F875F008EF2FFFEE33FEEC33FCEE9DEC60
:10006D00984005FCEE9DFE0FD5F0E9E4CEFD22EDA6
:10007D00F8F5F0EE8420D21CFEADF075F008EF2FF0
:10008D00FFED33FD4007985006D5F0F222C398FDE1
:05009D000FD5F0EA227E
:1000AE0002012EE493A3F8E493A34003F68001F239
:1000BE0008DFF48029E493A3F85407240CC8C33353
:1000CE00C4540F4420C8834004F456800146F6DF22
:1000DE00E4800B0102040810204080900373E47E3C
:1000EE00019360BCA3FF543F30E509541FFEE49317
:1000FE00A360010ECF54C025E060A840B8E493A3DE
:10010E00FAE493A3F8E493A3C8C582C8CAC583CA08
:10011E00F0A3C8C582C8CAC583CADFE9DEE780BEC0
:01037C000080
:00000001FF
